{
  "_format": "hh-sol-artifact-1",
  "contractName": "Drive",
  "sourceName": "contracts/Drive.sol",
  "abi": [
    {
      "anonymous": false,
      "inputs": [
        {
          "indexed": false,
          "internalType": "string[]",
          "name": "url",
          "type": "string[]"
        }
      ],
      "name": "fileAdded",
      "type": "event"
    },
    {
      "inputs": [
        {
          "internalType": "string",
          "name": "",
          "type": "string"
        }
      ],
      "name": "access",
      "outputs": [
        {
          "internalType": "address",
          "name": "",
          "type": "address"
        }
      ],
      "stateMutability": "view",
      "type": "function"
    },
    {
      "inputs": [
        {
          "internalType": "string",
          "name": "url",
          "type": "string"
        }
      ],
      "name": "accessDisplay",
      "outputs": [
        {
          "internalType": "address[]",
          "name": "",
          "type": "address[]"
        }
      ],
      "stateMutability": "view",
      "type": "function"
    },
    {
      "inputs": [
        {
          "internalType": "string",
          "name": "url",
          "type": "string"
        }
      ],
      "name": "addOwn",
      "outputs": [],
      "stateMutability": "nonpayable",
      "type": "function"
    },
    {
      "inputs": [
        {
          "internalType": "string",
          "name": "url",
          "type": "string"
        }
      ],
      "name": "deletePic",
      "outputs": [],
      "stateMutability": "nonpayable",
      "type": "function"
    },
    {
      "inputs": [
        {
          "internalType": "address",
          "name": "sharedWith",
          "type": "address"
        },
        {
          "internalType": "string",
          "name": "url",
          "type": "string"
        }
      ],
      "name": "grantAccess",
      "outputs": [],
      "stateMutability": "nonpayable",
      "type": "function"
    },
    {
      "inputs": [
        {
          "internalType": "address",
          "name": "user",
          "type": "address"
        }
      ],
      "name": "ownDisplay",
      "outputs": [
        {
          "internalType": "string[]",
          "name": "",
          "type": "string[]"
        }
      ],
      "stateMutability": "view",
      "type": "function"
    },
    {
      "inputs": [
        {
          "internalType": "address",
          "name": "sharedWith",
          "type": "address"
        },
        {
          "internalType": "string",
          "name": "url",
          "type": "string"
        }
      ],
      "name": "revokeAccess",
      "outputs": [],
      "stateMutability": "nonpayable",
      "type": "function"
    },
    {
      "inputs": [
        {
          "internalType": "address",
          "name": "user",
          "type": "address"
        }
      ],
      "name": "sharedDisplay",
      "outputs": [
        {
          "components": [
            {
              "internalType": "address",
              "name": "sharedBy",
              "type": "address"
            },
            {
              "internalType": "string",
              "name": "url",
              "type": "string"
            }
          ],
          "internalType": "struct Drive.share[]",
          "name": "",
          "type": "tuple[]"
        }
      ],
      "stateMutability": "view",
      "type": "function"
    }
  ],
  "bytecode": "0x608060405234801561001057600080fd5b50611fb2806100206000396000f3fe608060405234801561001057600080fd5b50600436106100885760003560e01c8063a7613e391161005b578063a7613e3914610125578063c1d9529914610141578063e1972ae214610171578063e50fe48e146101a157610088565b80635bec6e9c1461008d5780636a44cac9146100bd578063956e5de9146100d9578063a6b60f0e146100f5575b600080fd5b6100a760048036038101906100a29190611770565b6101bd565b6040516100b491906118a9565b60405180910390f35b6100d760048036038101906100d291906118f7565b6102a9565b005b6100f360048036038101906100ee9190611770565b610773565b005b61010f600480360381019061010a9190611770565b61090e565b60405161011c9190611962565b60405180910390f35b61013f600480360381019061013a9190611770565b610957565b005b61015b6004803603810190610156919061197d565b610ffd565b6040516101689190611b31565b60405180910390f35b61018b6004803603810190610186919061197d565b611186565b6040516101989190611c15565b60405180910390f35b6101bb60048036038101906101b691906118f7565b6112a1565b005b6060600160003373ffffffffffffffffffffffffffffffffffffffff1673ffffffffffffffffffffffffffffffffffffffff1681526020019081526020016000206001018260405161020f9190611c73565b908152602001604051809103902080548060200260200160405190810160405280929190818152602001828054801561029d57602002820191906000526020600020905b8160009054906101000a900473ffffffffffffffffffffffffffffffffffffffff1673ffffffffffffffffffffffffffffffffffffffff1681526020019060010190808311610253575b50505050509050919050565b3373ffffffffffffffffffffffffffffffffffffffff168273ffffffffffffffffffffffffffffffffffffffff161415610318576040517f08c379a000000000000000000000000000000000000000000000000000000000815260040161030f90611d0d565b60405180910390fd5b3373ffffffffffffffffffffffffffffffffffffffff1660008260405161033f9190611c73565b908152602001604051809103902060009054906101000a900473ffffffffffffffffffffffffffffffffffffffff1673ffffffffffffffffffffffffffffffffffffffff1614156107345760005b600160008473ffffffffffffffffffffffffffffffffffffffff1673ffffffffffffffffffffffffffffffffffffffff1681526020019081526020016000206002018054905081101561054257816040516020016103eb9190611c73565b60405160208183030381529060405280519060200120600160008573ffffffffffffffffffffffffffffffffffffffff1673ffffffffffffffffffffffffffffffffffffffff168152602001908152602001600020600201828154811061045557610454611d2d565b5b90600052602060002090600202016001016040516020016104769190611e51565b60405160208183030381529060405280519060200120141561052f57600160008473ffffffffffffffffffffffffffffffffffffffff1673ffffffffffffffffffffffffffffffffffffffff16815260200190815260200160002060020181815481106104e6576104e5611d2d565b5b9060005260206000209060020201600080820160006101000a81549073ffffffffffffffffffffffffffffffffffffffff021916905560018201600061052c9190611512565b50505b808061053a90611ea1565b91505061038d565b5060005b600160003373ffffffffffffffffffffffffffffffffffffffff1673ffffffffffffffffffffffffffffffffffffffff168152602001908152602001600020600101826040516105969190611c73565b90815260200160405180910390208054905081101561072e578273ffffffffffffffffffffffffffffffffffffffff16600160003373ffffffffffffffffffffffffffffffffffffffff1673ffffffffffffffffffffffffffffffffffffffff168152602001908152602001600020600101836040516106169190611c73565b9081526020016040518091039020828154811061063657610635611d2d565b5b9060005260206000200160009054906101000a900473ffffffffffffffffffffffffffffffffffffffff1673ffffffffffffffffffffffffffffffffffffffff16141561071b57600160003373ffffffffffffffffffffffffffffffffffffffff1673ffffffffffffffffffffffffffffffffffffffff168152602001908152602001600020600101826040516106cd9190611c73565b908152602001604051809103902081815481106106ed576106ec611d2d565b5b9060005260206000200160006101000a81549073ffffffffffffffffffffffffffffffffffffffff02191690555b808061072690611ea1565b915050610546565b5061076f565b6040517f08c379a000000000000000000000000000000000000000000000000000000000815260040161076690611f5c565b60405180910390fd5b5050565b600160003373ffffffffffffffffffffffffffffffffffffffff1673ffffffffffffffffffffffffffffffffffffffff168152602001908152602001600020600001819080600181540180825580915050600190039060005260206000200160009091909190915090805190602001906107ee929190611552565b50600160003373ffffffffffffffffffffffffffffffffffffffff1673ffffffffffffffffffffffffffffffffffffffff1681526020019081526020016000206001018160405161083f9190611c73565b9081526020016040518091039020339080600181540180825580915050600190039060005260206000200160009091909190916101000a81548173ffffffffffffffffffffffffffffffffffffffff021916908373ffffffffffffffffffffffffffffffffffffffff160217905550336000826040516108bf9190611c73565b908152602001604051809103902060006101000a81548173ffffffffffffffffffffffffffffffffffffffff021916908373ffffffffffffffffffffffffffffffffffffffff16021790555050565b6000818051602081018201805184825260208301602085012081835280955050505050506000915054906101000a900473ffffffffffffffffffffffffffffffffffffffff1681565b3373ffffffffffffffffffffffffffffffffffffffff1660008260405161097e9190611c73565b908152602001604051809103902060009054906101000a900473ffffffffffffffffffffffffffffffffffffffff1673ffffffffffffffffffffffffffffffffffffffff161415610fbf5760005b600160003373ffffffffffffffffffffffffffffffffffffffff1673ffffffffffffffffffffffffffffffffffffffff16815260200190815260200160002060000180549050811015610b485781604051602001610a2a9190611c73565b60405160208183030381529060405280519060200120600160003373ffffffffffffffffffffffffffffffffffffffff1673ffffffffffffffffffffffffffffffffffffffff1681526020019081526020016000206000018281548110610a9457610a93611d2d565b5b90600052602060002001604051602001610aae9190611e51565b604051602081830303815290604052805190602001201415610b3557600160003373ffffffffffffffffffffffffffffffffffffffff1673ffffffffffffffffffffffffffffffffffffffff1681526020019081526020016000206000018181548110610b1e57610b1d611d2d565b5b906000526020600020016000610b349190611512565b5b8080610b4090611ea1565b9150506109cc565b5060005b600160003373ffffffffffffffffffffffffffffffffffffffff1673ffffffffffffffffffffffffffffffffffffffff16815260200190815260200160002060010182604051610b9c9190611c73565b908152602001604051809103902080549050811015610f4f5760005b60016000600160003373ffffffffffffffffffffffffffffffffffffffff1673ffffffffffffffffffffffffffffffffffffffff16815260200190815260200160002060010185604051610c0c9190611c73565b90815260200160405180910390208481548110610c2c57610c2b611d2d565b5b9060005260206000200160009054906101000a900473ffffffffffffffffffffffffffffffffffffffff1673ffffffffffffffffffffffffffffffffffffffff1673ffffffffffffffffffffffffffffffffffffffff16815260200190815260200160002060020180549050811015610f3b5782604051602001610cb09190611c73565b6040516020818303038152906040528051906020012060016000600160003373ffffffffffffffffffffffffffffffffffffffff1673ffffffffffffffffffffffffffffffffffffffff16815260200190815260200160002060010186604051610d1a9190611c73565b90815260200160405180910390208581548110610d3a57610d39611d2d565b5b9060005260206000200160009054906101000a900473ffffffffffffffffffffffffffffffffffffffff1673ffffffffffffffffffffffffffffffffffffffff1673ffffffffffffffffffffffffffffffffffffffff1681526020019081526020016000206002018281548110610db457610db3611d2d565b5b9060005260206000209060020201600101604051602001610dd59190611e51565b604051602081830303815290604052805190602001201415610f285760016000600160003373ffffffffffffffffffffffffffffffffffffffff1673ffffffffffffffffffffffffffffffffffffffff16815260200190815260200160002060010185604051610e459190611c73565b90815260200160405180910390208481548110610e6557610e64611d2d565b5b9060005260206000200160009054906101000a900473ffffffffffffffffffffffffffffffffffffffff1673ffffffffffffffffffffffffffffffffffffffff1673ffffffffffffffffffffffffffffffffffffffff1681526020019081526020016000206002018181548110610edf57610ede611d2d565b5b9060005260206000209060020201600080820160006101000a81549073ffffffffffffffffffffffffffffffffffffffff0219169055600182016000610f259190611512565b50505b8080610f3390611ea1565b915050610bb8565b508080610f4790611ea1565b915050610b4c565b50600160003373ffffffffffffffffffffffffffffffffffffffff1673ffffffffffffffffffffffffffffffffffffffff16815260200190815260200160002060010181604051610fa09190611c73565b90815260200160405180910390206000610fba91906115d8565b610ffa565b6040517f08c379a0000000000000000000000000000000000000000000000000000000008152600401610ff190611f5c565b60405180910390fd5b50565b6060600160008373ffffffffffffffffffffffffffffffffffffffff1673ffffffffffffffffffffffffffffffffffffffff168152602001908152602001600020600201805480602002602001604051908101604052809291908181526020016000905b8282101561117b57838290600052602060002090600202016040518060400160405290816000820160009054906101000a900473ffffffffffffffffffffffffffffffffffffffff1673ffffffffffffffffffffffffffffffffffffffff1673ffffffffffffffffffffffffffffffffffffffff1681526020016001820180546110ea90611d8b565b80601f016020809104026020016040519081016040528092919081815260200182805461111690611d8b565b80156111635780601f1061113857610100808354040283529160200191611163565b820191906000526020600020905b81548152906001019060200180831161114657829003601f168201915b50505050508152505081526020019060010190611061565b505050509050919050565b6060600160008373ffffffffffffffffffffffffffffffffffffffff1673ffffffffffffffffffffffffffffffffffffffff168152602001908152602001600020600001805480602002602001604051908101604052809291908181526020016000905b8282101561129657838290600052602060002001805461120990611d8b565b80601f016020809104026020016040519081016040528092919081815260200182805461123590611d8b565b80156112825780601f1061125757610100808354040283529160200191611282565b820191906000526020600020905b81548152906001019060200180831161126557829003601f168201915b5050505050815260200190600101906111ea565b505050509050919050565b3373ffffffffffffffffffffffffffffffffffffffff166000826040516112c89190611c73565b908152602001604051809103902060009054906101000a900473ffffffffffffffffffffffffffffffffffffffff1673ffffffffffffffffffffffffffffffffffffffff1614156114d357600160008373ffffffffffffffffffffffffffffffffffffffff1673ffffffffffffffffffffffffffffffffffffffff16815260200190815260200160002060020160405180604001604052803373ffffffffffffffffffffffffffffffffffffffff16815260200183815250908060018154018082558091505060019003906000526020600020906002020160009091909190915060008201518160000160006101000a81548173ffffffffffffffffffffffffffffffffffffffff021916908373ffffffffffffffffffffffffffffffffffffffff160217905550602082015181600101908051906020019061140c929190611552565b505050600160003373ffffffffffffffffffffffffffffffffffffffff1673ffffffffffffffffffffffffffffffffffffffff1681526020019081526020016000206001018160405161145f9190611c73565b9081526020016040518091039020829080600181540180825580915050600190039060005260206000200160009091909190916101000a81548173ffffffffffffffffffffffffffffffffffffffff021916908373ffffffffffffffffffffffffffffffffffffffff16021790555061150e565b6040517f08c379a000000000000000000000000000000000000000000000000000000000815260040161150590611f5c565b60405180910390fd5b5050565b50805461151e90611d8b565b6000825580601f10611530575061154f565b601f01602090049060005260206000209081019061154e91906115f9565b5b50565b82805461155e90611d8b565b90600052602060002090601f01602090048101928261158057600085556115c7565b82601f1061159957805160ff19168380011785556115c7565b828001600101855582156115c7579182015b828111156115c65782518255916020019190600101906115ab565b5b5090506115d491906115f9565b5090565b50805460008255906000526020600020908101906115f691906115f9565b50565b5b808211156116125760008160009055506001016115fa565b5090565b6000604051905090565b600080fd5b600080fd5b600080fd5b600080fd5b6000601f19601f8301169050919050565b7f4e487b7100000000000000000000000000000000000000000000000000000000600052604160045260246000fd5b61167d82611634565b810181811067ffffffffffffffff8211171561169c5761169b611645565b5b80604052505050565b60006116af611616565b90506116bb8282611674565b919050565b600067ffffffffffffffff8211156116db576116da611645565b5b6116e482611634565b9050602081019050919050565b82818337600083830152505050565b600061171361170e846116c0565b6116a5565b90508281526020810184848401111561172f5761172e61162f565b5b61173a8482856116f1565b509392505050565b600082601f8301126117575761175661162a565b5b8135611767848260208601611700565b91505092915050565b60006020828403121561178657611785611620565b5b600082013567ffffffffffffffff8111156117a4576117a3611625565b5b6117b084828501611742565b91505092915050565b600081519050919050565b600082825260208201905092915050565b6000819050602082019050919050565b600073ffffffffffffffffffffffffffffffffffffffff82169050919050565b6000611810826117e5565b9050919050565b61182081611805565b82525050565b60006118328383611817565b60208301905092915050565b6000602082019050919050565b6000611856826117b9565b61186081856117c4565b935061186b836117d5565b8060005b8381101561189c5781516118838882611826565b975061188e8361183e565b92505060018101905061186f565b5085935050505092915050565b600060208201905081810360008301526118c3818461184b565b905092915050565b6118d481611805565b81146118df57600080fd5b50565b6000813590506118f1816118cb565b92915050565b6000806040838503121561190e5761190d611620565b5b600061191c858286016118e2565b925050602083013567ffffffffffffffff81111561193d5761193c611625565b5b61194985828601611742565b9150509250929050565b61195c81611805565b82525050565b60006020820190506119776000830184611953565b92915050565b60006020828403121561199357611992611620565b5b60006119a1848285016118e2565b91505092915050565b600081519050919050565b600082825260208201905092915050565b6000819050602082019050919050565b600081519050919050565b600082825260208201905092915050565b60005b83811015611a105780820151818401526020810190506119f5565b83811115611a1f576000848401525b50505050565b6000611a30826119d6565b611a3a81856119e1565b9350611a4a8185602086016119f2565b611a5381611634565b840191505092915050565b6000604083016000830151611a766000860182611817565b5060208301518482036020860152611a8e8282611a25565b9150508091505092915050565b6000611aa78383611a5e565b905092915050565b6000602082019050919050565b6000611ac7826119aa565b611ad181856119b5565b935083602082028501611ae3856119c6565b8060005b85811015611b1f5784840389528151611b008582611a9b565b9450611b0b83611aaf565b925060208a01995050600181019050611ae7565b50829750879550505050505092915050565b60006020820190508181036000830152611b4b8184611abc565b905092915050565b600081519050919050565b600082825260208201905092915050565b6000819050602082019050919050565b6000611b8b8383611a25565b905092915050565b6000602082019050919050565b6000611bab82611b53565b611bb58185611b5e565b935083602082028501611bc785611b6f565b8060005b85811015611c035784840389528151611be48582611b7f565b9450611bef83611b93565b925060208a01995050600181019050611bcb565b50829750879550505050505092915050565b60006020820190508181036000830152611c2f8184611ba0565b905092915050565b600081905092915050565b6000611c4d826119d6565b611c578185611c37565b9350611c678185602086016119f2565b80840191505092915050565b6000611c7f8284611c42565b915081905092915050565b600082825260208201905092915050565b7f596f752063616e6e6f74207265766f6b65206163636573732066726f6d20796f60008201527f757273656c660000000000000000000000000000000000000000000000000000602082015250565b6000611cf7602683611c8a565b9150611d0282611c9b565b604082019050919050565b60006020820190508181036000830152611d2681611cea565b9050919050565b7f4e487b7100000000000000000000000000000000000000000000000000000000600052603260045260246000fd5b7f4e487b7100000000000000000000000000000000000000000000000000000000600052602260045260246000fd5b60006002820490506001821680611da357607f821691505b60208210811415611db757611db6611d5c565b5b50919050565b60008190508160005260206000209050919050565b60008154611ddf81611d8b565b611de98186611c37565b94506001821660008114611e045760018114611e1557611e48565b60ff19831686528186019350611e48565b611e1e85611dbd565b60005b83811015611e4057815481890152600182019150602081019050611e21565b838801955050505b50505092915050565b6000611e5d8284611dd2565b915081905092915050565b7f4e487b7100000000000000000000000000000000000000000000000000000000600052601160045260246000fd5b6000819050919050565b6000611eac82611e97565b91507fffffffffffffffffffffffffffffffffffffffffffffffffffffffffffffffff821415611edf57611ede611e68565b5b600182019050919050565b7f596f7520617265206e6f7420746865206f776e6572206f66207468697320666960008201527f6c65000000000000000000000000000000000000000000000000000000000000602082015250565b6000611f46602283611c8a565b9150611f5182611eea565b604082019050919050565b60006020820190508181036000830152611f7581611f39565b905091905056fea2646970667358221220054dedc0718c4706b1e39730a5f2eb3c17c35090248f33f4f376de49636386e664736f6c63430008090033",
  "linkReferences": {},
  "deployedLinkReferences": {}
}